00002013050216560
12000034300000.190822013050200000000000000000000N0000000EDITORIAL KINO SA DE CV       0000000000N
1212300132      000090000+0000000000000000000000001N
1212851205      000110000+0000000000000000000000001N
1212851206      000010000+0000000000000000000000001N
00002013050215320
120000319500000000062013050200000000000000000000N0000000LAS CER.MODELO EN BC SA DE CV 0000000000N
121270535       000600000+0000000000000000000000001N
121270538       000180000+0000000000000000000000001N
1212850005      000600000+0000000000000000000000001N
00002013050212770
120000357500000004662013050200000000000000000000N0000000AMERICANBEVERAGE CO.SA. DE CV.0000000000N
1212250190      000020000+0000000000000000000000018N
1212250191      000010000+0000000000000000000000012N
1212250229      000120000+0000000000000000000000001N
1212250231      000120000+0000000000000000000000001N
1212250233      000120000+0000000000000000000000001N
1212250259      000280000+0000000000000000000000001N
1212250260      000480000+0000000000000000000000001N
1212250281      000010000+0000000000000000000000006N
1212291700      000010000+0000000000000000000000012N
1212291701      000010000+0000000000000000000000012N
1212291799      000010000+0000000000000000000000012N
1212291853      000010000+0000000000000000000000012N
1212291856      000010000+0000000000000000000000012N
00002013050212790
120000357500000004672013050200000000000000000000N0000000AMERICANBEVERAGE CO.SA. DE CV.0000000000N
1212250191      000010000+0000000000000000000000012N
1212250229      000240000+0000000000000000000000001N
1212250233      000120000+0000000000000000000000001N
1212250259      000280000+0000000000000000000000001N
1212250260      000480000+0000000000000000000000001N
1212291700      000010000+0000000000000000000000012N
1212291701      000010000+0000000000000000000000012N
1212291799      000010000+0000000000000000000000012N
1212291853      000010000+0000000000000000000000012N
1212291856      000010000+0000000000000000000000012N
00002013050212800
120000357500000004682013050200000000000000000000N0000000AMERICANBEVERAGE CO.SA. DE CV.0000000000N
1212250190      000020000+0000000000000000000000018N
1212250191      000020000+0000000000000000000000012N
1212250259      000560000+0000000000000000000000001N
1212250281      000020000+0000000000000000000000006N
1212291700      000010000+0000000000000000000000012N
1212291701      000020000+0000000000000000000000012N
1212291799      000010000+0000000000000000000000012N
1212291856      000010000+0000000000000000000000012N
00002013050214860
120000357500000004692013050200000000000000000000N0000000AMERICANBEVERAGE CO.SA. DE CV.0000000000N
1212250190      000010000+0000000000000000000000018N
1212250191      000010000+0000000000000000000000012N
1212250259      000280000+0000000000000000000000001N
1212250281      000030000+0000000000000000000000006N
1212291700      000010000+0000000000000000000000012N
1212291701      000010000+0000000000000000000000012N
1212291799      000010000+0000000000000000000000012N
1212291853      000010000+0000000000000000000000012N
1212291856      000010000+0000000000000000000000012N
00002013050216060
120000357500000004712013050200000000000000000000N0000000AMERICANBEVERAGE CO.SA. DE CV.0000000000N
1212250190      000020000+0000000000000000000000018N
1212250191      000020000+0000000000000000000000012N
1212250259      000560000+0000000000000000000000001N
1212250260      000480000+0000000000000000000000001N
1212250281      000010000+0000000000000000000000006N
1212291700      000010000+0000000000000000000000012N
1212291701      000010000+0000000000000000000000012N
1212291799      000010000+0000000000000000000000012N
1212291853      000010000+0000000000000000000000012N
1212291856      000010000+0000000000000000000000012N
00002013050215720
120000357500000004722013050200000000000000000000N0000000AMERICANBEVERAGE CO.SA. DE CV.0000000000N
1212250190      000010000+0000000000000000000000018N
1212250191      000010000+0000000000000000000000012N
1212250260      000240000+0000000000000000000000001N
1212250281      000010000+0000000000000000000000006N
1212291700      000010000+0000000000000000000000012N
1212291701      000010000+0000000000000000000000012N
1212291799      000010000+0000000000000000000000012N
1212291853      000010000+0000000000000000000000012N
1212291856      000010000+0000000000000000000000012N
00002013050212820
120000357500000004732013050200000000000000000000N0000000AMERICANBEVERAGE CO.SA. DE CV.0000000000N
1212250190      000010000+0000000000000000000000018N
1212250191      000010000+0000000000000000000000012N
1212250259      000280000+0000000000000000000000001N
1212250260      000480000+0000000000000000000000001N
1212291700      000010000+0000000000000000000000012N
1212291701      000010000+0000000000000000000000012N
1212291799      000010000+0000000000000000000000012N
1212291853      000010000+0000000000000000000000012N
1212291856      000010000+0000000000000000000000012N
00002013050215260
120000357500000004742013050200000000000000000000N0000000AMERICANBEVERAGE CO.SA. DE CV.0000000000N
1212250190      000010000+0000000000000000000000018N
1212250191      000010000+0000000000000000000000012N
1212250259      000280000+0000000000000000000000001N
1212250260      000240000+0000000000000000000000001N
1212291700      000010000+0000000000000000000000012N
1212291701      000010000+0000000000000000000000012N
1212291799      000010000+0000000000000000000000012N
1212291853      000010000+0000000000000000000000012N
1212291856      000010000+0000000000000000000000012N
00002013050215560
120000357500000004752013050200000000000000000000N0000000AMERICANBEVERAGE CO.SA. DE CV.0000000000N
1212250190      000010000+0000000000000000000000018N
1212250259      000280000+0000000000000000000000001N
1212291700      000010000+0000000000000000000000012N
1212291701      000010000+0000000000000000000000012N
1212291853      000010000+0000000000000000000000012N
1212291856      000010000+0000000000000000000000012N
00002013050215360
120000357500000004762013050200000000000000000000N0000000AMERICANBEVERAGE CO.SA. DE CV.0000000000N
1212250260      000480000+0000000000000000000000001N
1212291700      000010000+0000000000000000000000012N
1212291701      000010000+0000000000000000000000012N
1212291799      000010000+0000000000000000000000012N
1212291853      000010000+0000000000000000000000012N
1212291856      000010000+0000000000000000000000012N
00002013050212810
120000357500000004772013050200000000000000000000N0000000AMERICANBEVERAGE CO.SA. DE CV.0000000000N
1212291700      000010000+0000000000000000000000012N
1212291701      000010000+0000000000000000000000012N
1212291799      000010000+0000000000000000000000012N
1212291853      000010000+0000000000000000000000012N
1212291856      000010000+0000000000000000000000012N
00002013050212840
120000357500000000702013050200000000000000000000N0000000AMERICANBEVERAGE CO.SA. DE CV.0000000000N
1212250190      000010000+0000000000000000000000018N
1212250191      000010000+0000000000000000000000012N
1212250259      000280000+0000000000000000000000001N
1212250260      000240000+0000000000000000000000001N
1212250281      000020000+0000000000000000000000006N
1212291700      000010000+0000000000000000000000012N
1212291701      000010000+0000000000000000000000012N
1212291799      000010000+0000000000000000000000012N
1212291853      000010000+0000000000000000000000012N
1212291856      000010000+0000000000000000000000012N
00002013050216060
120000342000010520132013050200000000000000000000N0000000MANUEL DURAZO TERAN           0000000000N
1212280599      000420000+0000000000000000000000001N
1212280607      000390000+0000000000000000000000001N
00002013050213410
120000319500000132052013050200000000000000000000N0000000LAS CER.MODELO EN BC SA DE CV 0000000000N
121270412       000120000+0000000000000000000000001N
121270481       000150000+0000000000000000000000001N
121270513       000120000+0000000000000000000000001N
121270538       000020000+0000000000000000000000001N
121270587       000030000+0000000000000000000000001N
1212850005      000120000+0000000000000000000000001N
1212850886      000240000+0000000000000000000000001N
00002013050213300
120000349400000000162013050200000000000000000000N0000000COM. PEPSICO MEXICO S DE RL CV0000000000N
121290583       000150000+0000000000000000000000001N
121290702       000020000+0000000000000000000000001N
121290984       000150000+0000000000000000000000001N
121291611       000160000+0000000000000000000000001N
121291668       000160000+0000000000000000000000001N
121291669       000320000+0000000000000000000000001N
121292024       000160000+0000000000000000000000001N
121292314       000030000+0000000000000000000000001N
121292315       000030000+0000000000000000000000001N
121292324       000050000+0000000000000000000000001N
121292325       000050000+0000000000000000000000001N
121292326       000050000+0000000000000000000000001N
121292328       000050000+0000000000000000000000001N
121292329       000050000+0000000000000000000000001N
121292422       000060000+0000000000000000000000001N
121292423       000100000+0000000000000000000000001N
121292466       000040000+0000000000000000000000001N
121292470       000040000+0000000000000000000000001N
00002013050212770
120000310900000205132013050200000000000000000000N0000000BARCEL S.A. DE  C.V.          0000000000N
1212160145      000020000+0000000000000000000000001N
1212161330      000200000+0000000000000000000000001N
1212161337      000080000+0000000000000000000000001N
1212161425      000110000+0000000000000000000000001N
1212164124      000200000+0000000000000000000000001N
1212164125      000050000+0000000000000000000000001N
1212164215      000060000+0000000000000000000000001N
1212164239      000160000+0000000000000000000000001N
1212164291      000100000+0000000000000000000000001N
1212164294      000050000+0000000000000000000000001N
1212164490      000080000+0000000000000000000000001N
1212164493      000300000+0000000000000000000000001N
1212164498      000080000+0000000000000000000000001N
1212164655      000100000+0000000000000000000000001N
00002013050212790
120000310900000205132013050200000000000000000000N0000000BARCEL S.A. DE  C.V.          0000000000N
1212160145      000060000+0000000000000000000000001N
1212161087      000100000+0000000000000000000000001N
1212161330      000080000+0000000000000000000000001N
1212161331      000060000+0000000000000000000000001N
1212161335      000050000+0000000000000000000000001N
1212161425      000080000+0000000000000000000000001N
1212164124      000120000+0000000000000000000000001N
1212164125      000080000+0000000000000000000000001N
1212164216      000040000+0000000000000000000000001N
1212164239      000120000+0000000000000000000000001N
1212164294      000050000+0000000000000000000000001N
1212164488      000100000+0000000000000000000000001N
1212164490      000180000+0000000000000000000000001N
1212164493      000120000+0000000000000000000000001N
1212164498      000100000+0000000000000000000000001N
1212164565      000050000+0000000000000000000000001N
1212164655      000040000+0000000000000000000000001N
00002013050212810
120000342000000205132013050200000000000000000000N0000000MANUEL DURAZO TERAN           0000000000N
1212280599      000100000+0000000000000000000000001N
00002013050212820
120000342000000205132013050200000000000000000000N0000000MANUEL DURAZO TERAN           0000000000N
1212280599      000420000+0000000000000000000000001N
1212280608      000260000+0000000000000000000000001N
00002013050213200
120000310900000205132013050200000000000000000000N0000000BARCEL S.A. DE  C.V.          0000000000N
1212161087      000050000+0000000000000000000000001N
1212161331      000030000+0000000000000000000000001N
1212161425      000050000+0000000000000000000000001N
1212164124      000080000+0000000000000000000000001N
1212164216      000020000+0000000000000000000000001N
1212164239      000060000+0000000000000000000000001N
1212164291      000050000+0000000000000000000000001N
1212164565      000020000+0000000000000000000000001N
00002013050213220
120000310900000205132013050200000000000000000000N0000000BARCEL S.A. DE  C.V.          0000000000N
1212160145      000020000+0000000000000000000000001N
1212161087      000160000+0000000000000000000000001N
1212161330      000030000+0000000000000000000000001N
1212161331      000080000+0000000000000000000000001N
1212161425      000050000+0000000000000000000000001N
1212164125      000030000+0000000000000000000000001N
1212164216      000060000+0000000000000000000000001N
1212164488      000060000+0000000000000000000000001N
1212164492      000080000+0000000000000000000000001N
1212164493      000180000+0000000000000000000000001N
1212164565      000050000+0000000000000000000000001N
1212164655      000060000+0000000000000000000000001N
00002013050213270
120000310900000205132013050200000000000000000000N0000000BARCEL S.A. DE  C.V.          0000000000N
1212160145      000010000+0000000000000000000000001N
1212161087      000140000+0000000000000000000000001N
1212161330      000080000+0000000000000000000000001N
1212161331      000080000+0000000000000000000000001N
1212161335      000030000+0000000000000000000000001N
1212161425      000030000+0000000000000000000000001N
1212164124      000160000+0000000000000000000000001N
1212164125      000040000+0000000000000000000000001N
1212164215      000020000+0000000000000000000000001N
1212164216      000040000+0000000000000000000000001N
1212164239      000420000+0000000000000000000000001N
1212164291      000220000+0000000000000000000000001N
1212164294      000030000+0000000000000000000000001N
1212164488      000100000+0000000000000000000000001N
1212164490      000040000+0000000000000000000000001N
1212164492      000060000+0000000000000000000000001N
1212164493      000120000+0000000000000000000000001N
1212164565      000020000+0000000000000000000000001N
1212164655      000030000+0000000000000000000000001N
00002013050213270
120000319500000205132013050200000000000000000000N0000000LAS CER.MODELO EN BC SA DE CV 0000000000N
121270416       000240000+0000000000000000000000001N
121270481       000150000+0000000000000000000000001N
121270606       000040000+0000000000000000000000001N
1212850886      000240000+0000000000000000000000001N
00002013050213330
120000319500000205132013050200000000000000000000N0000000LAS CER.MODELO EN BC SA DE CV 0000000000N
121270091       000720000+0000000000000000000000001N
121270416       000480000+0000000000000000000000001N
121270481       000150000+0000000000000000000000001N
121270538       000020000+0000000000000000000000001N
121270539       000060000+0000000000000000000000001N
1212850005      000240000+0000000000000000000000001N
1212850886      000240000+0000000000000000000000001N
00002013050213420
120000319500000205132013050200000000000000000000N0000000LAS CER.MODELO EN BC SA DE CV 0000000000N
121270091       000480000+0000000000000000000000001N
121270416       000240000+0000000000000000000000001N
121270481       000150000+0000000000000000000000001N
00002013050213470
120000310900000205132013050200000000000000000000N0000000BARCEL S.A. DE  C.V.          0000000000N
1212161425      000090000+0000000000000000000000001N
1212164124      000040000+0000000000000000000000001N
1212164125      000070000+0000000000000000000000001N
1212164490      000030000+0000000000000000000000001N
1212164492      000030000+0000000000000000000000001N
1212164493      000080000+0000000000000000000000001N
1212164498      000040000+0000000000000000000000001N
1212164654      000030000+0000000000000000000000001N
1212164655      000070000+0000000000000000000000001N
00002013050213500
120000310900000205132013050200000000000000000000N0000000BARCEL S.A. DE  C.V.          0000000000N
1212160145      000030000+0000000000000000000000001N
1212161087      000060000+0000000000000000000000001N
1212161330      000050000+0000000000000000000000001N
1212161331      000030000+0000000000000000000000001N
1212161425      000070000+0000000000000000000000001N
1212164215      000020000+0000000000000000000000001N
1212164216      000040000+0000000000000000000000001N
1212164294      000010000+0000000000000000000000001N
1212164488      000120000+0000000000000000000000001N
1212164498      000120000+0000000000000000000000001N
00002013050214380
120000356100000205132013050200000000000000000000N0000000DIST. DE HUEVO BAJA CALI SA CV0000000000N
1212270053      000070000+0000000000000000000000001N
00002013050214860
120000342000000205132013050200000000000000000000N0000000MANUEL DURAZO TERAN           0000000000N
1212280601      000200000+0000000000000000000000001N
00002013050216760
120000319500000205132013050200000000000000000000N0000000LAS CER.MODELO EN BC SA DE CV 0000000000N
121270481       000300000+0000000000000000000000001N
121270535       000120000+0000000000000000000000001N
121270539       000040000+0000000000000000000000001N
1212850005      000120000+0000000000000000000000001N
00002013050213310
120000310900020520132013050200000000000000000000N0000000BARCEL S.A. DE  C.V.          0000000000N
1212160145      000020000+0000000000000000000000001N
1212161087      000040000+0000000000000000000000001N
1212161330      000080000+0000000000000000000000001N
1212161331      000060000+0000000000000000000000001N
1212161337      000060000+0000000000000000000000001N
1212161425      000020000+0000000000000000000000001N
1212164124      000180000+0000000000000000000000001N
1212164125      000060000+0000000000000000000000001N
1212164184      000030000+0000000000000000000000001N
1212164216      000070000+0000000000000000000000001N
1212164291      000060000+0000000000000000000000001N
1212164294      000090000+0000000000000000000000001N
1212164488      000060000+0000000000000000000000001N
1212164498      000080000+0000000000000000000000001N
1212164565      000030000+0000000000000000000000001N
1212164654      000080000+0000000000000000000000001N
1212164655      000080000+0000000000000000000000001N
00002013050215040
120000319500002591722013050200000000000000000000N0000000LAS CER.MODELO EN BC SA DE CV 0000000000N
121270368       001200000+0000000000000000000000001N
121270416       000720000+0000000000000000000000001N
121270426       000120000+0000000000000000000000001N
121270450       000240000+0000000000000000000000001N
121270481       000150000+0000000000000000000000001N
121270491       000240000+0000000000000000000000001N
121270535       000240000+0000000000000000000000001N
121270538       000060000+0000000000000000000000001N
121270539       000100000+0000000000000000000000001N
121270558       000240000+0000000000000000000000001N
121270587       000030000+0000000000000000000000001N
121270595       000010000+0000000000000000000000004N
121270606       000020000+0000000000000000000000001N
1212850285      000120000+0000000000000000000000001N
1212850886      000720000+0000000000000000000000001N
00002013050212840
120000357500000004702013050200000000000000000000N0000000AMERICANBEVERAGE CO.SA. DE CV.0000000000N
1212250190      000010000+0000000000000000000000018N
1212250191      000010000+0000000000000000000000012N
1212250259      000280000+0000000000000000000000001N
1212250260      000240000+0000000000000000000000001N
1212250281      000020000+0000000000000000000000006N
1212291700      000010000+0000000000000000000000012N
1212291701      000010000+0000000000000000000000012N
1212291799      000010000+0000000000000000000000012N
1212291853      000010000+0000000000000000000000012N
1212291856      000010000+0000000000000000000000012N
00002013050214380
120000335800000474742013050200000000000000000000N0000000IMPRESORA Y EDITORIAL SA DE CV0000000000N
1212851232      001100000+0000000000000000000000001N
00002013050113230
120000335800000474772013050100000000000000000000N0000000IMPRESORA Y EDITORIAL SA DE CV0000000000N
1212851232      000520000+0000000000000000000000001N
00002013050213270
120000335800000474862013050200000000000000000000N0000000IMPRESORA Y EDITORIAL SA DE CV0000000000N
1212851232      001240000+0000000000000000000000001N
00002013050113500
120000335800000474982013050100000000000000000000N0000000IMPRESORA Y EDITORIAL SA DE CV0000000000N
1212851232      000930000+0000000000000000000000001N
00002013050213430
120000335800000475672013050200000000000000000000N0000000IMPRESORA Y EDITORIAL SA DE CV0000000000N
1212851232      001350000+0000000000000000000000001N
00002013050213450
120000335800000475732013050200000000000000000000N0000000IMPRESORA Y EDITORIAL SA DE CV0000000000N
1212851232      001810000+0000000000000000000000001N
00002013050213480
120000335800000475742013050200000000000000000000N0000000IMPRESORA Y EDITORIAL SA DE CV0000000000N
1212851232      000980000+0000000000000000000000001N
00002013050217150
120000335800000475862013050200000000000000000000N0000000IMPRESORA Y EDITORIAL SA DE CV0000000000N
1212851232      000690000+0000000000000000000000001N
00002013050213450
120000319500000513022013050200000000000000000000N0000000LAS CER.MODELO EN BC SA DE CV 0000000000N
121270091       000240000+0000000000000000000000001N
121270176       000240000+0000000000000000000000001N
121270310       000240000+0000000000000000000000001N
121270416       000480000+0000000000000000000000001N
121270491       000240000+0000000000000000000000001N
121270538       000040000+0000000000000000000000001N
121270587       000020000+0000000000000000000000001N
121270595       000020000+0000000000000000000000004N
00002013050212770
120000320200000006412013050200000000000000000000N0000000UNILEVER DE MEXICO S.DERL.C.V.0000000000N
1212170008      000240000+0000000000000000000000001N
1212170358      000240000+0000000000000000000000001N
1212170593      000240000+0000000000000000000000001N
1212170637      000040000+0000000000000000000000001N
1212170712      000240000+0000000000000000000000001N
1212170717      000010000+0000000000000000000000024N
00002013050213480
120000354300000007762013050200000000000000000000N0000000CORPORATIVO FOPA S.A. DE C.V. 0000000000N
1212291666      000260000+0000000000000000000000001N
00002013050213430
120000354300000007772013050200000000000000000000N0000000CORPORATIVO FOPA S.A. DE C.V. 0000000000N
1212291666      000260000+0000000000000000000000001N
00002013050213450
120000354300000007782013050200000000000000000000N0000000CORPORATIVO FOPA S.A. DE C.V. 0000000000N
1212291666      000260000+0000000000000000000000001N
00002013050214520
120000354300000007792013050200000000000000000000N0000000CORPORATIVO FOPA S.A. DE C.V. 0000000000N
1212291666      000260000+0000000000000000000000001N
00002013050213290
120000333700000976922013050200000000000000000000N0000000CIA. EMB. DEL FUERTE, S. DE R.0000000000N
1212110308      000480000+0000000000000000000000001N
1212110735      000120000+0000000000000000000000001N
1212110887      000240000+0000000000000000000000001N
1212291014      000240000+0000000000000000000000001N
1212291145      000120000+0000000000000000000000001N
1212851251      000080000+0000000000000000000000001N
00002013050213370
120000333700000977592013050200000000000000000000N0000000CIA. EMB. DEL FUERTE, S. DE R.0000000000N
1212110308      000480000+0000000000000000000000001N
1212110378      000240000+0000000000000000000000001N
1212110564      000090000+0000000000000000000000001N
1212110689      000120000+0000000000000000000000001N
1212110694      000120000+0000000000000000000000001N
1212110735      000120000+0000000000000000000000001N
1212110737      000120000+0000000000000000000000001N
1212111344      000060000+0000000000000000000000001N
1212291014      000240000+0000000000000000000000001N
00002013050212840
12000034200000001-052013050200000000000000000000N0000000MANUEL DURAZO TERAN           0000000000N
1212280600      000410000+0000000000000000000000001N
1212280607      000380000+0000000000000000000000001N
00002013050215360
120000342000000001002013050200000000000000000000N0000000MANUEL DURAZO TERAN           0000000000N
1212280599      000200000+0000000000000000000000001N
00002013050217150
120000336600000100012013050200000000000000000000N0000000LUIS D. VARGAS GALVAN         0000000000N
1212851039      000050000+0000000000000000000000001N
00002013050213460
120000336600000101512013050200000000000000000000N0000000LUIS D. VARGAS GALVAN         0000000000N
1212851039      000070000+0000000000000000000000001N
00002013050215560
120000302600000010232013050200000000000000000000N0000000DIST.YCOMERC.DELACTEOS NTE.SA 0000000000N
1212311014      000010000+0000000000000000000000001N
1212311053      000020000+0000000000000000000000001N
1212311054      000030000+0000000000000000000000001N
1212311173      000040000+0000000000000000000000001N
1212311202      000020000+0000000000000000000000001N
1212311232      000240000+0000000000000000000000001N
1212311245      000020000+0000000000000000000000001N
1212311248      000030000+0000000000000000000000001N
1212311249      000030000+0000000000000000000000001N
1212311255      000040000+0000000000000000000000001N
1212311258      000030000+0000000000000000000000001N
1212800075      000020000+0000000000000000000000001N
1212800076      000010000+0000000000000000000000001N
1212800080      000020000+0000000000000000000000001N
00002013050218030
120000310900010520132013050200000000000000000000N0000000BARCEL S.A. DE  C.V.          0000000000N
1212161425      000070000+0000000000000000000000001N
1212164124      000250000+0000000000000000000000001N
1212164125      000060000+0000000000000000000000001N
1212164239      000100000+0000000000000000000000001N
1212164291      000300000+0000000000000000000000001N
1212164294      000060000+0000000000000000000000001N
1212164488      000300000+0000000000000000000000001N
1212164489      000060000+0000000000000000000000001N
1212164490      000060000+0000000000000000000000001N
1212164492      000050000+0000000000000000000000001N
1212164493      000100000+0000000000000000000000001N
1212164498      000150000+0000000000000000000000001N
1212164565      000060000+0000000000000000000000001N
00002013050212790
120000317000001096202013050200000000000000000000N0000000COM DE LACTEOS Y DERIV. SA CV 0000000000N
1212130055      000010000+0000000000000000000000001N
1212130162      000120000+0000000000000000000000001N
1212130327      000020000+0000000000000000000000001N
1212130379      000020000+0000000000000000000000001N
1212130385      000100000+0000000000000000000000001N
1212850810      000030000+0000000000000000000000001N
00002013050212770
120000317000001096212013050200000000000000000000N0000000COM DE LACTEOS Y DERIV. SA CV 0000000000N
1212130385      000160000+0000000000000000000000001N
1212311225      000070000+0000000000000000000000001N
1212311296      000200000+0000000000000000000000001N
1212311297      000040000+0000000000000000000000001N
1212311298      000100000+0000000000000000000000001N
1212311299      000100000+0000000000000000000000001N
1212311300      000100000+0000000000000000000000001N
00002013050215360
120000317000001096222013050200000000000000000000N0000000COM DE LACTEOS Y DERIV. SA CV 0000000000N
1212130378      000020000+0000000000000000000000001N
1212130379      000020000+0000000000000000000000001N
1212130384      000100000+0000000000000000000000001N
1212130385      000100000+0000000000000000000000001N
1212850810      000030000+0000000000000000000000001N
00002013050215720
120000317000001096232013050200000000000000000000N0000000COM DE LACTEOS Y DERIV. SA CV 0000000000N
1212311225      000060000+0000000000000000000000001N
1212311299      000060000+0000000000000000000000001N
1212311300      000070000+0000000000000000000000001N
00002013050214860
120000317000001096252013050200000000000000000000N0000000COM DE LACTEOS Y DERIV. SA CV 0000000000N
1212130327      000030000+0000000000000000000000001N
1212311225      000110000+0000000000000000000000001N
1212311295      000050000+0000000000000000000000001N
1212311296      000140000+0000000000000000000000001N
1212311297      000070000+0000000000000000000000001N
1212311298      000070000+0000000000000000000000001N
1212311300      000060000+0000000000000000000000001N
00002013050212800
120000317000001096262013050200000000000000000000N0000000COM DE LACTEOS Y DERIV. SA CV 0000000000N
1212130327      000030000+0000000000000000000000001N
1212311297      000100000+0000000000000000000000001N
00002013050212760
120000317000001096272013050200000000000000000000N0000000COM DE LACTEOS Y DERIV. SA CV 0000000000N
1212130384      000200000+0000000000000000000000001N
1212130385      000050000+0000000000000000000000001N
1212311295      000070000+0000000000000000000000001N
1212311296      000060000+0000000000000000000000001N
1212311298      000100000+0000000000000000000000001N
1212311299      000100000+0000000000000000000000001N
1212311300      000140000+0000000000000000000000001N
00002013050213430
120000308000011172722013050200000000000000000000N0000000CERV.CUAUHT.MOC. S.A. DE C.V. 0000000000N
1212850284      000480000+0000000000000000000000001N
00002013050213380
120000349400000111962013050200000000000000000000N0000000COM. PEPSICO MEXICO S DE RL CV0000000000N
121290583       000200000+0000000000000000000000001N
121290702       000100000+0000000000000000000000001N
121291611       000080000+0000000000000000000000001N
121292204       000150000+0000000000000000000000001N
121292315       000150000+0000000000000000000000001N
121292324       000140000+0000000000000000000000001N
121292325       000060000+0000000000000000000000001N
121292326       000080000+0000000000000000000000001N
121292329       000100000+0000000000000000000000001N
121292364       000070000+0000000000000000000000001N
121292371       000120000+0000000000000000000000001N
121292384       000100000+0000000000000000000000001N
121292422       000080000+0000000000000000000000001N
121292423       000060000+0000000000000000000000001N
121292434       000150000+0000000000000000000000001N
121292455       000040000+0000000000000000000000001N
121292456       000070000+0000000000000000000000001N
121292457       000040000+0000000000000000000000001N
121292466       000140000+0000000000000000000000001N
121292467       000070000+0000000000000000000000001N
121292469       000040000+0000000000000000000000001N
121292470       000040000+0000000000000000000000001N
00002013050213310
120000349400000111992013050200000000000000000000N0000000COM. PEPSICO MEXICO S DE RL CV0000000000N
121290582       000090000+0000000000000000000000001N
121290583       000150000+0000000000000000000000001N
121290584       000020000+0000000000000000000000001N
121290702       000060000+0000000000000000000000001N
121290984       000190000+0000000000000000000000001N
121291104       000030000+0000000000000000000000001N
121291109       000210000+0000000000000000000000001N
121291611       000060000+0000000000000000000000001N
121291668       000050000+0000000000000000000000001N
121291669       000100000+0000000000000000000000001N
121292024       000050000+0000000000000000000000001N
121292204       000030000+0000000000000000000000001N
121292261       000180000+0000000000000000000000001N
121292314       000040000+0000000000000000000000001N
121292315       000040000+0000000000000000000000001N
121292325       000280000+0000000000000000000000001N
121292326       000140000+0000000000000000000000001N
121292328       000280000+0000000000000000000000001N
121292329       000280000+0000000000000000000000001N
121292350       000160000+0000000000000000000000001N
121292355       000060000+0000000000000000000000001N
121292371       000100000+0000000000000000000000001N
121292384       000040000+0000000000000000000000001N
121292385       000100000+0000000000000000000000001N
121292391       000050000+0000000000000000000000001N
121292422       000080000+0000000000000000000000001N
121292423       000100000+0000000000000000000000001N
121292457       000020000+0000000000000000000000001N
121292466       000140000+0000000000000000000000001N
121292467       000010000+0000000000000000000000001N
121292468       000080000+0000000000000000000000001N
121292470       000110000+0000000000000000000000001N
00002013050116220
120000332900000011262013050100000000000000000000N0000000ALMANARA S. DE R.L. DE C.V.   0000000000N
1212850985      000150000+0000000000000000000000001N
121292490       000050000+0000000000000000000000001N
00002013050218170
120000356100000001132013050200000000000000000000N0000000DIST. DE HUEVO BAJA CALI SA CV0000000000N
1212270053      000030000+0000000000000000000000001N
00002013050213050
120000332900000011322013050200000000000000000000N0000000ALMANARA S. DE R.L. DE C.V.   0000000000N
1212850985      000120000+0000000000000000000000001N
1212850986      000050000+0000000000000000000000001N
00002013050212980
120000332900000011332013050200000000000000000000N0000000ALMANARA S. DE R.L. DE C.V.   0000000000N
1212850985      000120000+0000000000000000000000001N
1212850986      000100000+0000000000000000000000001N
00002013050115130
120000311300000113362013050100000000000000000000N0000000BIMBO, S.A. DE C.V.           0000000000N
1212360160      000060000+0000000000000000000000001N
121250111       000020000+0000000000000000000000001N
121250117       000010000+0000000000000000000000001N
121290001       000320000+0000000000000000000000001N
121290006       000140000+0000000000000000000000001N
121290030       000180000+0000000000000000000000001N
121290594       000010000+0000000000000000000000001N
121290599       000060000+0000000000000000000000001N
121290609       000050000+0000000000000000000000001N
121290610       000010000+0000000000000000000000001N
121290611       000010000+0000000000000000000000001N
121290614       000100000+0000000000000000000000001N
121290616       000030000+0000000000000000000000001N
121291170       000020000+0000000000000000000000001N
121291173       000060000+0000000000000000000000001N
121292125       000010000+0000000000000000000000001N
00002013050213470
120000308000001143332013050200000000000000000000N0000000CERV.CUAUHT.MOC. S.A. DE C.V. 0000000000N
121270253       000240000+0000000000000000000000001N
121270355       000720000+0000000000000000000000001N
121270388       000240000+0000000000000000000000001N
121270447       000120000+0000000000000000000000001N
121270480       000960000+0000000000000000000000001N
121270486       000240000+0000000000000000000000001N
121270487       000720000+0000000000000000000000001N
121270490       000240000+0000000000000000000000001N
121270496       000480000+0000000000000000000000001N
121270503       000240000+0000000000000000000000001N
121270521       000240000+0000000000000000000000001N
121270543       000060000+0000000000000000000000001N
121270600       000240000+0000000000000000000000001N
121270607       000020000+0000000000000000000000024N
121270608       000240000+0000000000000000000000001N
121270632       000150000+0000000000000000000000001N
1212850267      000240000+0000000000000000000000001N
00002013050213220
120000308000001163282013050200000000000000000000N0000000CERV.CUAUHT.MOC. S.A. DE C.V. 0000000000N
121270028       000360000+0000000000000000000000001N
121270253       000720000+0000000000000000000000001N
121270355       002400000+0000000000000000000000001N
121270365       000480000+0000000000000000000000001N
121270386       006240000+0000000000000000000000001N
121270387       009840000+0000000000000000000000001N
121270441       001300000+0000000000000000000000001N
121270480       002400000+0000000000000000000000001N
121270486       002400000+0000000000000000000000001N
121270487       001680000+0000000000000000000000001N
121270490       001200000+0000000000000000000000001N
121270496       001800000+0000000000000000000000001N
121270503       000360000+0000000000000000000000001N
121270521       000240000+0000000000000000000000001N
121270543       000040000+0000000000000000000000001N
121270545       000050000+0000000000000000000000001N
121270598       000160000+0000000000000000000000001N
121270600       000720000+0000000000000000000000001N
121270601       000240000+0000000000000000000000001N
121270607       000040000+0000000000000000000000024N
121270608       000240000+0000000000000000000000001N
121270632       000150000+0000000000000000000000001N
1212850267      000480000+0000000000000000000000001N
1212850519      000120000+0000000000000000000000001N
00002013050213430
120000308000001172722013050200000000000000000000N0000000CERV.CUAUHT.MOC. S.A. DE C.V. 0000000000N
121270355       000480000+0000000000000000000000001N
121270386       001200000+0000000000000000000000001N
121270405       000120000+0000000000000000000000001N
121270447       000120000+0000000000000000000000001N
121270480       001680000+0000000000000000000000001N
121270486       000240000+0000000000000000000000001N
121270496       000600000+0000000000000000000000001N
121270503       000360000+0000000000000000000000001N
121270521       000240000+0000000000000000000000001N
121270543       000200000+0000000000000000000000001N
121270600       000240000+0000000000000000000000001N
121270601       000240000+0000000000000000000000001N
121270607       000020000+0000000000000000000000024N
121270608       000600000+0000000000000000000000001N
121270615       000240000+0000000000000000000000001N
1212850261      000120000+0000000000000000000000001N
1212850267      000480000+0000000000000000000000001N
1212850519      000020000+0000000000000000000000001N
00002013050212770
120000337700001173092013050200000000000000000000N0000000J.JESUS JAUREGUI RODRIGUEZ    0000000000N
1212164352      000200000+0000000000000000000000001N
00002013050212810
120000337700001173122013050200000000000000000000N0000000J.JESUS JAUREGUI RODRIGUEZ    0000000000N
1212164352      000080000+0000000000000000000000001N
00002013050212840
120000337700001173192013050200000000000000000000N0000000J.JESUS JAUREGUI RODRIGUEZ    0000000000N
1212164352      000060000+0000000000000000000000001N
1212851005      000030000+0000000000000000000000001N
00002013050214860
120000337700001173212013050200000000000000000000N0000000J.JESUS JAUREGUI RODRIGUEZ    0000000000N
1212164352      000150000+0000000000000000000000001N
1212851005      000200000+0000000000000000000000001N
00002013050212800
120000337700001173222013050200000000000000000000N0000000J.JESUS JAUREGUI RODRIGUEZ    0000000000N
1212164352      000100000+0000000000000000000000001N
00002013050215560
120000337700001173512013050200000000000000000000N0000000J.JESUS JAUREGUI RODRIGUEZ    0000000000N
1212164352      000050000+0000000000000000000000001N
1212851005      000050000+0000000000000000000000001N
00002013050213450
120000308000001186922013050200000000000000000000N0000000CERV.CUAUHT.MOC. S.A. DE C.V. 0000000000N
121270028       000700000+0000000000000000000000001N
121270253       000480000+0000000000000000000000001N
121270355       003600000+0000000000000000000000001N
121270365       000480000+0000000000000000000000001N
121270386       000960000+0000000000000000000000001N
121270387       016800000+0000000000000000000000001N
121270388       000240000+0000000000000000000000001N
121270447       000720000+0000000000000000000000001N
121270480       001440000+0000000000000000000000001N
121270486       002040000+0000000000000000000000001N
121270487       000720000+0000000000000000000000001N
121270490       000480000+0000000000000000000000001N
121270496       001200000+0000000000000000000000001N
121270503       000720000+0000000000000000000000001N
121270521       000720000+0000000000000000000000001N
121270543       000040000+0000000000000000000000001N
121270600       000240000+0000000000000000000000001N
121270607       000040000+0000000000000000000000024N
121270608       001200000+0000000000000000000000001N
121270632       000150000+0000000000000000000000001N
1212850261      000480000+0000000000000000000000001N
1212850267      000840000+0000000000000000000000001N
1212850284      000840000+0000000000000000000000001N
1212850519      000040000+0000000000000000000000001N
00002013050213030
120000330800001196802013050200000000000000000000N0000000DIST.ARCACONTNENTALS.DER.L.C.V0000000000N
1212110308      000720000+0000000000000000000000001N
1212110378      000240000+0000000000000000000000001N
1212110564      000160000+0000000000000000000000001N
1212110694      000120000+0000000000000000000000001N
1212110737      000120000+0000000000000000000000001N
1212110887      000240000+0000000000000000000000001N
1212111010      000120000+0000000000000000000000001N
1212111344      000160000+0000000000000000000000001N
1212250010      000240000+0000000000000000000000001N
1212250150      000060000+0000000000000000000000001N
1212291014      000300000+0000000000000000000000001N
1212291145      000120000+0000000000000000000000001N
1212291749      000060000+0000000000000000000000001N
00002013050213050
120000330800001196852013050200000000000000000000N0000000DIST.ARCACONTNENTALS.DER.L.C.V0000000000N
1212110005      000720000+0000000000000000000000001N
1212110062      000080000+0000000000000000000000001N
1212110308      001440000+0000000000000000000000001N
1212110378      000720000+0000000000000000000000001N
1212110564      000400000+0000000000000000000000001N
1212110694      000360000+0000000000000000000000001N
1212110735      000240000+0000000000000000000000001N
1212110737      000120000+0000000000000000000000001N
1212110855      000120000+0000000000000000000000001N
1212110887      000480000+0000000000000000000000001N
1212111008      000080000+0000000000000000000000001N
1212111010      000240000+0000000000000000000000001N
1212111098      000480000+0000000000000000000000001N
1212111257      000120000+0000000000000000000000001N
1212111344      000300000+0000000000000000000000001N
1212250010      000240000+0000000000000000000000001N
1212250026      000480000+0000000000000000000000001N
1212250151      000060000+0000000000000000000000001N
1212250153      000060000+0000000000000000000000001N
1212250154      000060000+0000000000000000000000001N
1212250182      000060000+0000000000000000000000001N
1212250212      000060000+0000000000000000000000001N
1212291014      000480000+0000000000000000000000001N
1212291408      000240000+0000000000000000000000001N
1212291583      000240000+0000000000000000000000001N
1212291749      000120000+0000000000000000000000001N
00002013050213300
120000334400000012012013050200000000000000000000N0000000ROGELIO GUTIERREZ RAMIREZ     0000000000N
1212850685      000120000+0000000000000000000000001N
00002013050212840
120000311300000120392013050200000000000000000000N0000000BIMBO, S.A. DE C.V.           0000000000N
1212360160      000030000+0000000000000000000000001N
121290008       000300000+0000000000000000000000001N
121290009       000300000+0000000000000000000000001N
121290609       000060000+0000000000000000000000001N
121290610       000020000+0000000000000000000000001N
121290612       000040000+0000000000000000000000001N
121290614       000100000+0000000000000000000000001N
121291172       000120000+0000000000000000000000001N
121291720       000300000+0000000000000000000000001N
00002013050213270
120000349400000121112013050200000000000000000000N0000000COM. PEPSICO MEXICO S DE RL CV0000000000N
1212850734      000080000+0000000000000000000000001N
121290583       000200000+0000000000000000000000001N
121290584       000060000+0000000000000000000000001N
121290702       000200000+0000000000000000000000001N
121291109       000210000+0000000000000000000000001N
121291611       000160000+0000000000000000000000001N
121292024       000160000+0000000000000000000000001N
121292261       000200000+0000000000000000000000001N
121292350       000200000+0000000000000000000000001N
121292385       000100000+0000000000000000000000001N
121292422       000050000+0000000000000000000000001N
121292423       000050000+0000000000000000000000001N
121292466       000200000+0000000000000000000000001N
121292467       000200000+0000000000000000000000001N
121292468       000100000+0000000000000000000000001N
121292470       000100000+0000000000000000000000001N
00002013050218620
120000352200000012192013050200000000000000000000N0000000SG PROVOLOTO, S.DE R.L. DE C.V0000000000N
1212490110      000500000+0000000000000000000000001N
1212490113      000500000+0000000000000000000000001N
00002013050213490
120000352200000012202013050200000000000000000000N0000000SG PROVOLOTO, S.DE R.L. DE C.V0000000000N
1212490110      000500000+0000000000000000000000001N
1212490113      000500000+0000000000000000000000001N
00002013050213490
120000332900000012212013050200000000000000000000N0000000ALMANARA S. DE R.L. DE C.V.   0000000000N
1212850986      000090000+0000000000000000000000001N
00002013050213000
120000308000001240462013050200000000000000000000N0000000CERV.CUAUHT.MOC. S.A. DE C.V. 0000000000N
121270365       000240000+0000000000000000000000001N
121270386       000480000+0000000000000000000000001N
121270387       001200000+0000000000000000000000001N
121270441       000200000+0000000000000000000000001N
121270480       000480000+0000000000000000000000001N
121270486       000240000+0000000000000000000000001N
121270496       000240000+0000000000000000000000001N
121270503       001440000+0000000000000000000000001N
121270608       001200000+0000000000000000000000001N
121270632       000150000+0000000000000000000000001N
00002013050216220
120000308000001250342013050200000000000000000000N0000000CERV.CUAUHT.MOC. S.A. DE C.V. 0000000000N
121270355       001200000+0000000000000000000000001N
121270365       000240000+0000000000000000000000001N
121270386       001200000+0000000000000000000000001N
121270486       000720000+0000000000000000000000001N
121270503       000960000+0000000000000000000000001N
121270545       000100000+0000000000000000000000001N
121270600       000240000+0000000000000000000000001N
121270608       001200000+0000000000000000000000001N
121270632       000300000+0000000000000000000000001N
1212850261      000240000+0000000000000000000000001N
1212850885      000600000+0000000000000000000000001N
00002013050213360
120000337200001260782013050200000000000000000000N0000000PAGASA, S.A. DE C.V.          0000000000N
1212850501      000180000+0000000000000000000000001N
1212850508      000160000+0000000000000000000000001N
00002013050213380
120000337200001260792013050200000000000000000000N0000000PAGASA, S.A. DE C.V.          0000000000N
1212850501      000180000+0000000000000000000000001N
1212850502      000180000+0000000000000000000000001N
00002013050213340
120000337200001260992013050200000000000000000000N0000000PAGASA, S.A. DE C.V.          0000000000N
1212850501      000180000+0000000000000000000000001N
1212850504      000120000+0000000000000000000000001N
1212850508      000160000+0000000000000000000000001N
00002013050215370
120000337200001261262013050200000000000000000000N0000000PAGASA, S.A. DE C.V.          0000000000N
1212850499      000200000+0000000000000000000000001N
00002013050213370
120000337200001261292013050200000000000000000000N0000000PAGASA, S.A. DE C.V.          0000000000N
1212850502      000180000+0000000000000000000000001N
00002013050213220
120000337200001261342013050200000000000000000000N0000000PAGASA, S.A. DE C.V.          0000000000N
1212850501      000090000+0000000000000000000000001N
1212850502      000090000+0000000000000000000000001N
00002013050213470
120000337200001261362013050200000000000000000000N0000000PAGASA, S.A. DE C.V.          0000000000N
1212850501      000180000+0000000000000000000000001N
1212850502      000180000+0000000000000000000000001N
00002013050213190
120000337200001261642013050200000000000000000000N0000000PAGASA, S.A. DE C.V.          0000000000N
1212850505      000120000+0000000000000000000000001N
1212850508      000160000+0000000000000000000000001N
00002013050218130
120000330800001280612013050200000000000000000000N0000000DIST.ARCACONTNENTALS.DER.L.C.V0000000000N
1212110005      000240000+0000000000000000000000001N
1212110010      000120000+0000000000000000000000001N
1212110308      001200000+0000000000000000000000001N
1212110378      001200000+0000000000000000000000001N
1212110564      000480000+0000000000000000000000001N
1212110694      000120000+0000000000000000000000001N
1212110735      000120000+0000000000000000000000001N
1212110737      000120000+0000000000000000000000001N
1212110887      000240000+0000000000000000000000001N
1212111010      000120000+0000000000000000000000001N
1212111098      000240000+0000000000000000000000001N
1212111344      000600000+0000000000000000000000001N
1212250010      000240000+0000000000000000000000001N
1212250026      000960000+0000000000000000000000001N
1212291014      001200000+0000000000000000000000001N
1212800510      000120000+0000000000000000000000001N
1212800600      000240000+0000000000000000000000001N
1212851095      000120000+0000000000000000000000001N
00002013050216760
120000336400000130662013050200000000000000000000N0000000LUGO DISTRIBUIDORES S.DE R.L. 0000000000N
1212151701      000080000+0000000000000000000000001N
1212152132      000100000+0000000000000000000000001N
1212152197      000160000+0000000000000000000000001N
1212153046      000100000+0000000000000000000000001N
1212154099      000150000+0000000000000000000000001N
1212154562      000060000+0000000000000000000000001N
1212154563      000180000+0000000000000000000000001N
1212154565      000060000+0000000000000000000000001N
00002013050216560
120000336400000130672013050200000000000000000000N0000000LUGO DISTRIBUIDORES S.DE R.L. 0000000000N
1212151701      000240000+0000000000000000000000001N
1212152197      000160000+0000000000000000000000001N
00002013050215640
120000336400000130682013050200000000000000000000N0000000LUGO DISTRIBUIDORES S.DE R.L. 0000000000N
1212151701      000400000+0000000000000000000000001N
1212152132      000060000+0000000000000000000000001N
1212153046      000200000+0000000000000000000000001N
1212154099      000150000+0000000000000000000000001N
1212154562      000120000+0000000000000000000000001N
1212154565      000120000+0000000000000000000000001N
00002013050213060
120000359600131222012013050200000000000000000000N0000000BEBIDAS PURIFICADAS S D RL CV 0000000000N
1212291847      000030000+0000000000000000000000012N
1212291848      000030000+0000000000000000000000012N
00002013050215560
120000349400000013332013050200000000000000000000N0000000COM. PEPSICO MEXICO S DE RL CV0000000000N
1212161413      000040000+0000000000000000000000001N
1212164316      000100000+0000000000000000000000001N
1212164329      000020000+0000000000000000000000001N
1212164334      000040000+0000000000000000000000001N
1212164338      000020000+0000000000000000000000001N
00002013050118620
120000334400000013712013050100000000000000000000N0000000ROGELIO GUTIERREZ RAMIREZ     0000000000N
1212850685      000120000+0000000000000000000000001N
00002013050213320
120000334400000013762013050200000000000000000000N0000000ROGELIO GUTIERREZ RAMIREZ     0000000000N
1212850685      000120000+0000000000000000000000001N
00002013050215720
120000332000000138612013050200000000000000000000N0000000TROPICAL MOKA,S.A. DE C.V.    0000000000N
1212851188      000020000+0000000000000000000000001N
00002013050212820
120000332000000138622013050200000000000000000000N0000000TROPICAL MOKA,S.A. DE C.V.    0000000000N
1212851188      000030000+0000000000000000000000001N
00002013050212800
120000332000000138632013050200000000000000000000N0000000TROPICAL MOKA,S.A. DE C.V.    0000000000N
1212851188      000030000+0000000000000000000000001N
00002013050212760
120000332000000138652013050200000000000000000000N0000000TROPICAL MOKA,S.A. DE C.V.    0000000000N
1212200182      000010000+0000000000000000000000006N
1212200183      000010000+0000000000000000000000006N
1212851187      000030000+0000000000000000000000001N
1212851188      000030000+0000000000000000000000001N
00002013050212840
120000332000000138662013050200000000000000000000N0000000TROPICAL MOKA,S.A. DE C.V.    0000000000N
1212851188      000030000+0000000000000000000000001N
00002013050216060
120000332000000138672013050200000000000000000000N0000000TROPICAL MOKA,S.A. DE C.V.    0000000000N
1212200182      000010000+0000000000000000000000006N
1212200183      000010000+0000000000000000000000006N
1212851187      000040000+0000000000000000000000001N
1212851188      000020000+0000000000000000000000001N
1212851189      000030000+0000000000000000000000001N
00002013050212790
120000332000000138682013050200000000000000000000N0000000TROPICAL MOKA,S.A. DE C.V.    0000000000N
1212200182      000020000+0000000000000000000000006N
1212200183      000010000+0000000000000000000000006N
1212851187      000050000+0000000000000000000000001N
1212851188      000040000+0000000000000000000000001N
1212851189      000020000+0000000000000000000000001N
00002013050212770
120000332000000138692013050200000000000000000000N0000000TROPICAL MOKA,S.A. DE C.V.    0000000000N
1212200182      000010000+0000000000000000000000006N
1212851187      000050000+0000000000000000000000001N
1212851188      000030000+0000000000000000000000001N
1212851189      000020000+0000000000000000000000001N
00002013050215360
120000332000000138702013050200000000000000000000N0000000TROPICAL MOKA,S.A. DE C.V.    0000000000N
1212851187      000030000+0000000000000000000000001N
1212851188      000030000+0000000000000000000000001N
1212851189      000030000+0000000000000000000000001N
00002013050215130
120000330800001394642013050200000000000000000000N0000000DIST.ARCACONTNENTALS.DER.L.C.V0000000000N
1212110005      000480000+0000000000000000000000001N
1212110308      002400000+0000000000000000000000001N
1212110546      000120000+0000000000000000000000001N
1212110564      000080000+0000000000000000000000001N
1212110694      000120000+0000000000000000000000001N
1212110735      000120000+0000000000000000000000001N
1212110737      000120000+0000000000000000000000001N
1212110738      000120000+0000000000000000000000001N
1212110739      000080000+0000000000000000000000001N
1212110844      000120000+0000000000000000000000001N
1212110855      000120000+0000000000000000000000001N
1212110887      000240000+0000000000000000000000001N
1212111090      000060000+0000000000000000000000001N
1212111093      000060000+0000000000000000000000001N
1212111098      000240000+0000000000000000000000001N
1212111344      000120000+0000000000000000000000001N
1212250010      000240000+0000000000000000000000001N
1212250026      000240000+0000000000000000000000001N
1212291408      000120000+0000000000000000000000001N
1212291583      000120000+0000000000000000000000001N
00002013050215130
120000330800001395572013050200000000000000000000N0000000DIST.ARCACONTNENTALS.DER.L.C.V0000000000N
1212110308      001200000+0000000000000000000000001N
1212110378      000480000+0000000000000000000000001N
1212110564      000400000+0000000000000000000000001N
1212110694      000120000+0000000000000000000000001N
1212110738      000120000+0000000000000000000000001N
1212111010      000120000+0000000000000000000000001N
1212111344      000480000+0000000000000000000000001N
1212250010      000240000+0000000000000000000000001N
1212250150      000060000+0000000000000000000000001N
1212250153      000060000+0000000000000000000000001N
1212250182      000060000+0000000000000000000000001N
1212291348      000060000+0000000000000000000000001N
1212291749      000120000+0000000000000000000000001N
1212800600      000060000+0000000000000000000000001N
1212851095      000120000+0000000000000000000000001N
00002013050218000
120000330800001451552013050200000000000000000000N0000000DIST.ARCACONTNENTALS.DER.L.C.V0000000000N
1212110062      000080000+0000000000000000000000001N
1212110063      000080000+0000000000000000000000001N
1212110308      001200000+0000000000000000000000001N
1212110378      000360000+0000000000000000000000001N
1212110564      000320000+0000000000000000000000001N
1212110694      000120000+0000000000000000000000001N
1212110735      000120000+0000000000000000000000001N
1212110844      000120000+0000000000000000000000001N
1212110845      000120000+0000000000000000000000001N
1212111008      000080000+0000000000000000000000001N
1212111010      000120000+0000000000000000000000001N
1212111257      000120000+0000000000000000000000001N
1212111344      000300000+0000000000000000000000001N
1212851090      000080000+0000000000000000000000001N
1212851093      000080000+0000000000000000000000001N
00002013050218000
120000330800001451572013050200000000000000000000N0000000DIST.ARCACONTNENTALS.DER.L.C.V0000000000N
1212291014      000240000+0000000000000000000000001N
1212410044      000480000+0000000000000000000000001N
00002013050217150
120000356100000145742013050200000000000000000000N0000000DIST. DE HUEVO BAJA CALI SA CV0000000000N
1212270053      000070000+0000000000000000000000001N
00002013050213260
120000356100000145752013050200000000000000000000N0000000DIST. DE HUEVO BAJA CALI SA CV0000000000N
1212270053      000020000+0000000000000000000000001N
00002013050212980
120000353700000001472013050200000000000000000000N0000000COMTAR S.A. DE C.V.           0000000000N
1212480011      000050000+0000000000000000000000001N
1212480027      000150000+0000000000000000000000001N
1212480029      000100000+0000000000000000000000001N
1212480071      000100000+0000000000000000000000001N
1212480133      000050000+0000000000000000000000001N
1212480163      000030000+0000000000000000000000001N
00002013050216060
120000337400000014872013050200000000000000000000N0000000PAST. JERSEY DEL NOROESTE,S.A.0000000000N
1212311220      000060000+0000000000000000000000001N
1212311221      000060000+0000000000000000000000001N
1212311222      000060000+0000000000000000000000001N
1212311223      000040000+0000000000000000000000001N
1212850946      000060000+0000000000000000000000001N
1212850947      000040000+0000000000000000000000001N
1212850950      000060000+0000000000000000000000001N
1212850951      000040000+0000000000000000000000001N
00002013050212810
120000337400000014892013050200000000000000000000N0000000PAST. JERSEY DEL NOROESTE,S.A.0000000000N
1212311220      000060000+0000000000000000000000001N
1212311221      000040000+0000000000000000000000001N
1212311222      000040000+0000000000000000000000001N
1212850946      000120000+0000000000000000000000001N
1212850947      000060000+0000000000000000000000001N
1212850948      000150000+0000000000000000000000001N
1212850949      000100000+0000000000000000000000001N
1212850950      000120000+0000000000000000000000001N
1212850951      000060000+0000000000000000000000001N
00002013050213040
120000330800001521002013050200000000000000000000N0000000DIST.ARCACONTNENTALS.DER.L.C.V0000000000N
1212110005      000480000+0000000000000000000000001N
1212110063      000080000+0000000000000000000000001N
1212110308      000960000+0000000000000000000000001N
1212110378      000360000+0000000000000000000000001N
1212110564      000160000+0000000000000000000000001N
1212110694      000120000+0000000000000000000000001N
1212110828      000120000+0000000000000000000000001N
1212110887      000240000+0000000000000000000000001N
1212111010      000120000+0000000000000000000000001N
1212111257      000120000+0000000000000000000000001N
1212111344      000120000+0000000000000000000000001N
1212250151      000060000+0000000000000000000000001N
1212250179      000360000+0000000000000000000000001N
1212291014      000360000+0000000000000000000000001N
1212291145      000060000+0000000000000000000000001N
1212291583      000060000+0000000000000000000000001N
1212291749      000120000+0000000000000000000000001N
1212291791      000060000+0000000000000000000000001N
00002013050212800
120000311300000152162013050200000000000000000000N0000000BIMBO, S.A. DE C.V.           0000000000N
1212360160      000240000+0000000000000000000000001N
121250111       000010000+0000000000000000000000001N
121250411       000030000+0000000000000000000000001N
121290001       000030000+0000000000000000000000001N
121290006       000050000+0000000000000000000000001N
121290008       000050000+0000000000000000000000001N
121290009       000200000+0000000000000000000000001N
121290012       000040000+0000000000000000000000001N
121290030       000020000+0000000000000000000000001N
121290043       000010000+0000000000000000000000001N
121290201       000060000+0000000000000000000000001N
121290202       000080000+0000000000000000000000001N
121290596       000010000+0000000000000000000000001N
121290598       000060000+0000000000000000000000001N
121290599       000050000+0000000000000000000000001N
121290602       000080000+0000000000000000000000001N
121290604       000080000+0000000000000000000000001N
121290605       000010000+0000000000000000000000001N
121290609       000020000+0000000000000000000000001N
121290610       000010000+0000000000000000000000001N
121290612       000020000+0000000000000000000000001N
121290614       000100000+0000000000000000000000001N
121290616       000010000+0000000000000000000000001N
121290662       000050000+0000000000000000000000001N
121290921       000020000+0000000000000000000000001N
121291170       000020000+0000000000000000000000001N
121291171       000030000+0000000000000000000000001N
121291172       000120000+0000000000000000000000001N
121291173       000040000+0000000000000000000000001N
121291196       000050000+0000000000000000000000001N
121291702       000200000+0000000000000000000000001N
121291720       000300000+0000000000000000000000001N
121291722       000100000+0000000000000000000000001N
121292125       000070000+0000000000000000000000001N
121292136       000200000+0000000000000000000000001N
00002013050218320
120000302600000015282013050200000000000000000000N0000000DIST.YCOMERC.DELACTEOS NTE.SA 0000000000N
1212120367      000050000+0000000000000000000000001N
1212130314      000120000+0000000000000000000000001N
1212130317      000120000+0000000000000000000000001N
1212291417      000120000+0000000000000000000000001N
1212311232      000240000+0000000000000000000000001N
1212311248      000050000+0000000000000000000000001N
1212311254      000080000+0000000000000000000000001N
1212311256      000120000+0000000000000000000000001N
1212311258      000050000+0000000000000000000000001N
1212800076      000060000+0000000000000000000000001N
00002013050116430
120000349400000152822013050100000000000000000000N0000000COM. PEPSICO MEXICO S DE RL CV0000000000N
121290582       000060000+0000000000000000000000001N
121290583       000100000+0000000000000000000000001N
121291109       000040000+0000000000000000000000001N
121291611       000010000+0000000000000000000000001N
121291647       000240000+0000000000000000000000001N
121292199       000080000+0000000000000000000000001N
121292204       000060000+0000000000000000000000001N
121292261       000020000+0000000000000000000000001N
121292314       000040000+0000000000000000000000001N
121292315       000040000+0000000000000000000000001N
121292325       000080000+0000000000000000000000001N
121292326       000080000+0000000000000000000000001N
121292329       000100000+0000000000000000000000001N
121292350       000060000+0000000000000000000000001N
121292355       000020000+0000000000000000000000001N
121292385       000050000+0000000000000000000000001N
121292424       000100000+0000000000000000000000001N
121292433       000120000+0000000000000000000000001N
121292434       000030000+0000000000000000000000001N
121292466       000360000+0000000000000000000000001N
121292468       000080000+0000000000000000000000001N
121292469       000160000+0000000000000000000000001N
121292470       000080000+0000000000000000000000001N
00002013050118130
120000337500001530252013050100000000000000000000N0000000UNION DE PAST. DE JUAREZ, S.A.0000000000N
1212170688      000060000+0000000000000000000000001N
1212170689      000240000+0000000000000000000000001N
1212170691      000060000+0000000000000000000000001N
1212170692      000480000+0000000000000000000000001N
1212170693      000060000+0000000000000000000000001N
1212170694      000360000+0000000000000000000000001N
00002013050212770
120000311300000158242013050200000000000000000000N0000000BIMBO, S.A. DE C.V.           0000000000N
1212161414      000020000+0000000000000000000000001N
1212360160      000060000+0000000000000000000000001N
121250111       000020000+0000000000000000000000001N
121250117       000010000+0000000000000000000000001N
121250122       000010000+0000000000000000000000001N
121250375       000030000+0000000000000000000000001N
121290030       000180000+0000000000000000000000001N
121290598       000210000+0000000000000000000000001N
121290599       000220000+0000000000000000000000001N
121290602       000150000+0000000000000000000000001N
121290614       000400000+0000000000000000000000001N
121290921       000120000+0000000000000000000000001N
121291171       000100000+0000000000000000000000001N
121291172       000120000+0000000000000000000000001N
121292009       000120000+0000000000000000000000001N
121292043       000400000+0000000000000000000000001N
121292125       000150000+0000000000000000000000001N
121292429       000160000+0000000000000000000000001N
00002013050214920
120000352200000015902013050200000000000000000000N0000000SG PROVOLOTO, S.DE R.L. DE C.V0000000000N
1212490110      000500000+0000000000000000000000001N
1212490113      000500000+0000000000000000000000001N
1212490116      000500000+0000000000000000000000001N
1212490119      001000000+0000000000000000000000001N
00002013050215640
120000308000000159832013050200000000000000000000N0000000CERV.CUAUHT.MOC. S.A. DE C.V. 0000000000N
121270028       000020000+0000000000000000000000001N
121270217       000480000+0000000000000000000000001N
121270253       000240000+0000000000000000000000001N
121270355       001200000+0000000000000000000000001N
121270365       000240000+0000000000000000000000001N
121270386       002400000+0000000000000000000000001N
121270387       002400000+0000000000000000000000001N
121270388       000720000+0000000000000000000000001N
121270405       000120000+0000000000000000000000001N
121270441       000600000+0000000000000000000000001N
121270480       001680000+0000000000000000000000001N
121270486       002400000+0000000000000000000000001N
121270496       000600000+0000000000000000000000001N
121270503       000240000+0000000000000000000000001N
121270521       000480000+0000000000000000000000001N
121270543       000230000+0000000000000000000000001N
121270545       000200000+0000000000000000000000001N
121270586       000040000+0000000000000000000000001N
121270600       000480000+0000000000000000000000001N
121270601       000240000+0000000000000000000000001N
121270607       000040000+0000000000000000000000024N
121270608       000600000+0000000000000000000000001N
121270632       000150000+0000000000000000000000001N
1212850267      000360000+0000000000000000000000001N
00002013050219080
120000337500001615552013050200000000000000000000N0000000UNION DE PAST. DE JUAREZ, S.A.0000000000N
1212170688      000120000+0000000000000000000000001N
1212170689      000240000+0000000000000000000000001N
1212170690      000120000+0000000000000000000000001N
1212170692      000270000+0000000000000000000000001N
1212170694      000480000+0000000000000000000000001N
1212170695      000120000+0000000000000000000000001N
1212311227      000120000+0000000000000000000000001N
00002013050213080
120000337500001615582013050200000000000000000000N0000000UNION DE PAST. DE JUAREZ, S.A.0000000000N
1212170688      000120000+0000000000000000000000001N
1212170689      000360000+0000000000000000000000001N
1212170690      000120000+0000000000000000000000001N
1212170691      000120000+0000000000000000000000001N
1212170692      000240000+0000000000000000000000001N
1212170693      000120000+0000000000000000000000001N
1212170694      000120000+0000000000000000000000001N
00002013050215040
120000335800016238062013050200000000000000000000N0000000IMPRESORA Y EDITORIAL SA DE CV0000000000N
1212851232      000950000+0000000000000000000000001N
00002013050213070
120000337500001647592013050200000000000000000000N0000000UNION DE PAST. DE JUAREZ, S.A.0000000000N
1212130362      000060000+0000000000000000000000001N
1212130363      000060000+0000000000000000000000001N
00002013050216590
120000337500001649962013050200000000000000000000N0000000UNION DE PAST. DE JUAREZ, S.A.0000000000N
1212130358      000060000+0000000000000000000000001N
1212130361      000060000+0000000000000000000000001N
1212130364      000060000+0000000000000000000000001N
00002013050218130
120000337500001653122013050200000000000000000000N0000000UNION DE PAST. DE JUAREZ, S.A.0000000000N
1212130358      000120000+0000000000000000000000001N
1212130360      000040000+0000000000000000000000001N
1212130362      000040000+0000000000000000000000001N
1212130364      000040000+0000000000000000000000001N
00002013050217260
120000336600000016812013050200000000000000000000N0000000LUIS D. VARGAS GALVAN         0000000000N
1212851039      000130000+0000000000000000000000001N
00002013050218000
120000337500001683432013050200000000000000000000N0000000UNION DE PAST. DE JUAREZ, S.A.0000000000N
1212130360      000120000+0000000000000000000000001N
1212130362      000120000+0000000000000000000000001N
1212130363      000120000+0000000000000000000000001N
00002013050216220
120000337500001693102013050200000000000000000000N0000000UNION DE PAST. DE JUAREZ, S.A.0000000000N
1212130358      000120000+0000000000000000000000001N
1212130360      000030000+0000000000000000000000001N
1212130361      000020000+0000000000000000000000001N
1212130362      000030000+0000000000000000000000001N
1212130363      000020000+0000000000000000000000001N
1212130364      000020000+0000000000000000000000001N
00002013050213030
120000337500001693162013050200000000000000000000N0000000UNION DE PAST. DE JUAREZ, S.A.0000000000N
1212130358      000150000+0000000000000000000000001N
00002013050212970
120000337500001693192013050200000000000000000000N0000000UNION DE PAST. DE JUAREZ, S.A.0000000000N
1212130360      000050000+0000000000000000000000001N
1212130361      000020000+0000000000000000000000001N
1212130362      000010000+0000000000000000000000001N
1212130363      000020000+0000000000000000000000001N
1212130364      000020000+0000000000000000000000001N
00002013050215320
120000337500001709162013050200000000000000000000N0000000UNION DE PAST. DE JUAREZ, S.A.0000000000N
1212130358      000060000+0000000000000000000000001N
1212130359      000020000+0000000000000000000000001N
1212130360      000120000+0000000000000000000000001N
1212130362      000040000+0000000000000000000000001N
1212130364      000040000+0000000000000000000000001N
1212851434      000040000+0000000000000000000000001N
00002013050215850
120000337500001709642013050200000000000000000000N0000000UNION DE PAST. DE JUAREZ, S.A.0000000000N
1212130358      000060000+0000000000000000000000001N
1212130362      000030000+0000000000000000000000001N
1212130364      000050000+0000000000000000000000001N
00002013050216220
120000311300000183252013050200000000000000000000N0000000BIMBO, S.A. DE C.V.           0000000000N
121250117       000020000+0000000000000000000000001N
121250169       000010000+0000000000000000000000001N
121290598       000040000+0000000000000000000000001N
121290599       000120000+0000000000000000000000001N
121290609       000040000+0000000000000000000000001N
121290614       000100000+0000000000000000000000001N
00002013050212970
120000311300000183262013050200000000000000000000N0000000BIMBO, S.A. DE C.V.           0000000000N
121250117       000010000+0000000000000000000000001N
121290596       000030000+0000000000000000000000001N
121290604       000020000+0000000000000000000000001N
121290614       000100000+0000000000000000000000001N
121291170       000020000+0000000000000000000000001N
00002013050115130
120000308000000189712013050100000000000000000000N0000000CERV.CUAUHT.MOC. S.A. DE C.V. 0000000000N
121270253       000480000+0000000000000000000000001N
121270355       000480000+0000000000000000000000001N
121270365       000720000+0000000000000000000000001N
121270405       000120000+0000000000000000000000001N
121270441       000500000+0000000000000000000000001N
121270447       000240000+0000000000000000000000001N
121270480       000960000+0000000000000000000000001N
121270486       000480000+0000000000000000000000001N
121270503       000600000+0000000000000000000000001N
121270540       000010000+0000000000000000000000002N
121270545       000200000+0000000000000000000000001N
121270608       000120000+0000000000000000000000001N
121270632       000150000+0000000000000000000000001N
1212850885      000600000+0000000000000000000000001N
00002013050213220
120000343000000190682013050200000000000000000000N0000000EDITORIAL KINO SA DE CV       0000000000N
1212300132      000430000+0000000000000000000000001N
1212851205      000140000+0000000000000000000000001N
1212851206      000020000+0000000000000000000000001N
00002013050213410
120000343000000190712013050200000000000000000000N0000000EDITORIAL KINO SA DE CV       0000000000N
1212300132      000500000+0000000000000000000000001N
1212851205      000230000+0000000000000000000000001N
00002013050214520
120000343000000190722013050200000000000000000000N0000000EDITORIAL KINO SA DE CV       0000000000N
1212300132      000390000+0000000000000000000000001N
1212851205      000190000+0000000000000000000000001N
1212851206      000060000+0000000000000000000000001N
00002013050213260
120000343000000190762013050200000000000000000000N0000000EDITORIAL KINO SA DE CV       0000000000N
1212300132      000230000+0000000000000000000000001N
1212851205      000080000+0000000000000000000000001N
1212851206      000020000+0000000000000000000000001N
00002013050215640
120000343000000190782013050200000000000000000000N0000000EDITORIAL KINO SA DE CV       0000000000N
1212300132      000080000+0000000000000000000000001N
1212851205      000070000+0000000000000000000000001N
1212851206      000030000+0000000000000000000000001N
00002013050217150
120000343000000190832013050200000000000000000000N0000000EDITORIAL KINO SA DE CV       0000000000N
1212300132      000260000+0000000000000000000000001N
1212851205      000150000+0000000000000000000000001N
1212851206      000050000+0000000000000000000000001N
00002013050213030
120000317000001910252013050200000000000000000000N0000000COM DE LACTEOS Y DERIV. SA CV 0000000000N
1212311295      000120000+0000000000000000000000001N
1212311296      000120000+0000000000000000000000001N
1212311297      000120000+0000000000000000000000001N
1212311298      000120000+0000000000000000000000001N
1212311299      000120000+0000000000000000000000001N
1212311300      000120000+0000000000000000000000001N
00002013050213410
120000308000001943822013050200000000000000000000N0000000CERV.CUAUHT.MOC. S.A. DE C.V. 0000000000N
121270387       002400000+0000000000000000000000001N
121270405       000120000+0000000000000000000000001N
121270486       001200000+0000000000000000000000001N
121270503       000120000+0000000000000000000000001N
121270586       000040000+0000000000000000000000001N
121270607       000020000+0000000000000000000000024N
121270608       000240000+0000000000000000000000001N
1212850267      000240000+0000000000000000000000001N
00002013050213080
120000317000001971182013050200000000000000000000N0000000COM DE LACTEOS Y DERIV. SA CV 0000000000N
1212130384      000170000+0000000000000000000000001N
1212130385      000270000+0000000000000000000000001N
1212291034      000080000+0000000000000000000000001N
1212311225      000150000+0000000000000000000000001N
00002013050118130
120000317000001972002013050100000000000000000000N0000000COM DE LACTEOS Y DERIV. SA CV 0000000000N
1212130055      000020000+0000000000000000000000001N
1212130327      000020000+0000000000000000000000001N
1212130384      000050000+0000000000000000000000001N
1212130385      000050000+0000000000000000000000001N
1212311295      000120000+0000000000000000000000001N
1212311298      000120000+0000000000000000000000001N
1212311299      000120000+0000000000000000000000001N
00002013050212800
120000337400001976682013050200000000000000000000N0000000PAST. JERSEY DEL NOROESTE,S.A.0000000000N
1212850947      000020000+0000000000000000000000001N
1212850949      000100000+0000000000000000000000001N
1212850951      000020000+0000000000000000000000001N
1212850954      000040000+0000000000000000000000001N
1212850955      000020000+0000000000000000000000001N
00002013050214860
120000337400001977932013050200000000000000000000N0000000PAST. JERSEY DEL NOROESTE,S.A.0000000000N
1212850946      000040000+0000000000000000000000001N
1212850947      000040000+0000000000000000000000001N
1212850948      000040000+0000000000000000000000001N
1212850951      000010000+0000000000000000000000001N
00002013050213070
120000337400001983482013050200000000000000000000N0000000PAST. JERSEY DEL NOROESTE,S.A.0000000000N
1212850948      000060000+0000000000000000000000001N
1212850949      000060000+0000000000000000000000001N
1212850950      000020000+0000000000000000000000001N
1212850951      000020000+0000000000000000000000001N
00002013050215720
120000342002/05/20132013050200000000000000000000N0000000MANUEL DURAZO TERAN           0000000000N
1212280601      000150000+0000000000000000000000001N
00002013050214320
120000317000002009252013050200000000000000000000N0000000COM DE LACTEOS Y DERIV. SA CV 0000000000N
1212130327      000030000+0000000000000000000000001N
1212130378      000030000+0000000000000000000000001N
1212311225      000150000+0000000000000000000000001N
1212311295      000100000+0000000000000000000000001N
1212311296      000100000+0000000000000000000000001N
1212311297      000100000+0000000000000000000000001N
1212311298      000100000+0000000000000000000000001N
1212311299      000100000+0000000000000000000000001N
00002013050213040
120000317000002017532013050200000000000000000000N0000000COM DE LACTEOS Y DERIV. SA CV 0000000000N
1212130379      000010000+0000000000000000000000001N
1212311225      000060000+0000000000000000000000001N
1212311295      000060000+0000000000000000000000001N
1212311296      000060000+0000000000000000000000001N
1212311300      000060000+0000000000000000000000001N
1212850810      000020000+0000000000000000000000001N
00002013050213430
120000319500002050132013050200000000000000000000N0000000LAS CER.MODELO EN BC SA DE CV 0000000000N
121270368       000720000+0000000000000000000000001N
121270413       000120000+0000000000000000000000001N
121270416       000240000+0000000000000000000000001N
121270450       000240000+0000000000000000000000001N
121270491       000240000+0000000000000000000000001N
121270535       000120000+0000000000000000000000001N
121270587       000100000+0000000000000000000000001N
00002013050213450
120000310900000205132013050200000000000000000000N0000000BARCEL S.A. DE  C.V.          0000000000N
1212161087      000100000+0000000000000000000000001N
1212161330      000180000+0000000000000000000000001N
1212161331      000090000+0000000000000000000000001N
1212161337      000070000+0000000000000000000000001N
1212161425      000080000+0000000000000000000000001N
1212164124      000260000+0000000000000000000000001N
1212164125      000070000+0000000000000000000000001N
1212164216      000040000+0000000000000000000000001N
1212164239      000080000+0000000000000000000000001N
1212164291      000080000+0000000000000000000000001N
1212164294      000040000+0000000000000000000000001N
1212164488      000160000+0000000000000000000000001N
1212164490      000040000+0000000000000000000000001N
1212164492      000060000+0000000000000000000000001N
1212164493      000200000+0000000000000000000000001N
1212164498      000290000+0000000000000000000000001N
1212164565      000060000+0000000000000000000000001N
1212164654      000030000+0000000000000000000000001N
1212164655      000100000+0000000000000000000000001N
00002013050215560
120000342000000205132013050200000000000000000000N0000000MANUEL DURAZO TERAN           0000000000N
1212280601      000120000+0000000000000000000000001N
00002013050212770
120000342000020520132013050200000000000000000000N0000000MANUEL DURAZO TERAN           0000000000N
1212280601      000100000+0000000000000000000000001N
00002013050115320
120000339400020520132013050100000000000000000000N0000000PABACANO, S.A. DE C.V.        0000000000N
1212280538      000300000+0000000000000000000000001N
00002013050213050
120000308000002073612013050200000000000000000000N0000000CERV.CUAUHT.MOC. S.A. DE C.V. 0000000000N
121270028       000120000+0000000000000000000000001N
121270355       000240000+0000000000000000000000001N
121270386       000960000+0000000000000000000000001N
121270387       001440000+0000000000000000000000001N
121270441       000300000+0000000000000000000000001N
121270447       000360000+0000000000000000000000001N
121270480       000720000+0000000000000000000000001N
121270503       000480000+0000000000000000000000001N
121270521       000240000+0000000000000000000000001N
121270586       000040000+0000000000000000000000001N
121270632       000150000+0000000000000000000000001N
00002013050213340
120000337400002085232013050200000000000000000000N0000000PAST. JERSEY DEL NOROESTE,S.A.0000000000N
1212850946      000120000+0000000000000000000000001N
1212850950      000020000+0000000000000000000000001N
1212850951      000060000+0000000000000000000000001N
1212850953      000020000+0000000000000000000000001N
00002013050213260
120000337400002085242013050200000000000000000000N0000000PAST. JERSEY DEL NOROESTE,S.A.0000000000N
1212850951      000060000+0000000000000000000000001N
1212850955      000020000+0000000000000000000000001N
00002013050213060
120000302800020859832013050200000000000000000000N0000000DISTGARCICRESPO S.DER.L. DEC.V0000000000N
1212110277      000240000+0000000000000000000000001N
1212110483      000120000+0000000000000000000000001N
1212110485      000720000+0000000000000000000000001N
1212110701      000480000+0000000000000000000000001N
1212110710      000120000+0000000000000000000000001N
1212110782      000080000+0000000000000000000000001N
1212110784      000080000+0000000000000000000000001N
1212110995      000120000+0000000000000000000000001N
1212110996      000060000+0000000000000000000000001N
1212111106      000480000+0000000000000000000000001N
1212111185      000240000+0000000000000000000000001N
1212111186      000240000+0000000000000000000000001N
1212111187      000960000+0000000000000000000000001N
1212111188      000720000+0000000000000000000000001N
1212850855      000080000+0000000000000000000000001N
00002013050218320
120000302800020859872013050200000000000000000000N0000000DISTGARCICRESPO S.DER.L. DEC.V0000000000N
1212110485      000120000+0000000000000000000000001N
1212110701      000120000+0000000000000000000000001N
1212110710      000120000+0000000000000000000000001N
1212110782      000080000+0000000000000000000000001N
1212110788      000160000+0000000000000000000000001N
1212110795      000080000+0000000000000000000000001N
1212110979      000080000+0000000000000000000000001N
1212110996      000120000+0000000000000000000000001N
1212111185      000120000+0000000000000000000000001N
1212111187      000120000+0000000000000000000000001N
1212111188      000120000+0000000000000000000000001N
1212111236      000120000+0000000000000000000000001N
1212111380      000080000+0000000000000000000000001N
00002013050215290
120000337400002089802013050200000000000000000000N0000000PAST. JERSEY DEL NOROESTE,S.A.0000000000N
1212311220      000060000+0000000000000000000000001N
1212311221      000060000+0000000000000000000000001N
1212311222      000060000+0000000000000000000000001N
1212311223      000060000+0000000000000000000000001N
1212850946      000020000+0000000000000000000000001N
1212850948      000020000+0000000000000000000000001N
00002013050214920
120000337400002089822013050200000000000000000000N0000000PAST. JERSEY DEL NOROESTE,S.A.0000000000N
1212130323      000010000+0000000000000000000000001N
1212311220      000020000+0000000000000000000000001N
1212311221      000060000+0000000000000000000000001N
1212311222      000040000+0000000000000000000000001N
1212311223      000040000+0000000000000000000000001N
1212850946      000020000+0000000000000000000000001N
1212850948      000020000+0000000000000000000000001N
1212850949      000100000+0000000000000000000000001N
00002013050213300
120000337400002089862013050200000000000000000000N0000000PAST. JERSEY DEL NOROESTE,S.A.0000000000N
1212311221      000080000+0000000000000000000000001N
1212850949      000100000+0000000000000000000000001N
1212850953      000010000+0000000000000000000000001N
1212850954      000030000+0000000000000000000000001N
00002013050215120
120000337400002089922013050200000000000000000000N0000000PAST. JERSEY DEL NOROESTE,S.A.0000000000N
1212311220      000060000+0000000000000000000000001N
1212311221      000100000+0000000000000000000000001N
1212311222      000150000+0000000000000000000000001N
1212311223      000080000+0000000000000000000000001N
1212850947      000010000+0000000000000000000000001N
1212850948      000120000+0000000000000000000000001N
1212850949      000120000+0000000000000000000000001N
1212850951      000010000+0000000000000000000000001N
1212850953      000020000+0000000000000000000000001N
1212850955      000060000+0000000000000000000000001N
00002013050215010
120000337400002096062013050200000000000000000000N0000000PAST. JERSEY DEL NOROESTE,S.A.0000000000N
1212311221      000060000+0000000000000000000000001N
1212311222      000120000+0000000000000000000000001N
1212850949      000120000+0000000000000000000000001N
1212850951      000060000+0000000000000000000000001N
1212850955      000060000+0000000000000000000000001N
00002013050213210
120000337400002096162013050200000000000000000000N0000000PAST. JERSEY DEL NOROESTE,S.A.0000000000N
1212290691      000240000+0000000000000000000000001N
1212311222      000180000+0000000000000000000000001N
1212311223      000120000+0000000000000000000000001N
1212850950      000060000+0000000000000000000000001N
00002013050213220
120000337400002096262013050200000000000000000000N0000000PAST. JERSEY DEL NOROESTE,S.A.0000000000N
1212311220      000060000+0000000000000000000000001N
1212311221      000060000+0000000000000000000000001N
1212850947      000060000+0000000000000000000000001N
1212850949      000120000+0000000000000000000000001N
1212850955      000120000+0000000000000000000000001N
00002013050213470
120000337400002096272013050200000000000000000000N0000000PAST. JERSEY DEL NOROESTE,S.A.0000000000N
1212850946      000060000+0000000000000000000000001N
1212850948      000120000+0000000000000000000000001N
1212850950      000060000+0000000000000000000000001N
1212850951      000040000+0000000000000000000000001N
1212850955      000120000+0000000000000000000000001N
00002013050215560
120000337400000020972013050200000000000000000000N0000000PAST. JERSEY DEL NOROESTE,S.A.0000000000N
1212311220      000030000+0000000000000000000000001N
1212311222      000030000+0000000000000000000000001N
1212850949      000060000+0000000000000000000000001N
1212850950      000030000+0000000000000000000000001N
1212850951      000010000+0000000000000000000000001N
00002013050212840
120000337400000021112013050200000000000000000000N0000000PAST. JERSEY DEL NOROESTE,S.A.0000000000N
1212311221      000030000+0000000000000000000000001N
1212850950      000030000+0000000000000000000000001N
00002013050212990
120000354600000212942013050200000000000000000000N0000000PURE AND CLEAR DE MEXCICO SACV0000000000N
1212180026      000200000+0000000000000000000000001N
00002013050213440
120000337400002133682013050200000000000000000000N0000000PAST. JERSEY DEL NOROESTE,S.A.0000000000N
1212311220      000060000+0000000000000000000000001N
1212311221      000060000+0000000000000000000000001N
1212311222      000100000+0000000000000000000000001N
1212850947      000060000+0000000000000000000000001N
1212850949      000180000+0000000000000000000000001N
1212850951      000060000+0000000000000000000000001N
1212850953      000030000+0000000000000000000000001N
00002013050213310
120000337400002136872013050200000000000000000000N0000000PAST. JERSEY DEL NOROESTE,S.A.0000000000N
1212130323      000020000+0000000000000000000000001N
1212290691      000120000+0000000000000000000000001N
1212311220      000080000+0000000000000000000000001N
1212311221      000080000+0000000000000000000000001N
1212311222      000080000+0000000000000000000000001N
1212311223      000060000+0000000000000000000000001N
1212850946      000030000+0000000000000000000000001N
1212850947      000020000+0000000000000000000000001N
1212850949      000150000+0000000000000000000000001N
1212850950      000030000+0000000000000000000000001N
1212850951      000020000+0000000000000000000000001N
1212850953      000020000+0000000000000000000000001N
1212850954      000080000+0000000000000000000000001N
1212850955      000100000+0000000000000000000000001N
00002013050213360
120000337400002136882013050200000000000000000000N0000000PAST. JERSEY DEL NOROESTE,S.A.0000000000N
1212130323      000020000+0000000000000000000000001N
1212290691      000120000+0000000000000000000000001N
1212311221      000060000+0000000000000000000000001N
1212311222      000030000+0000000000000000000000001N
1212311223      000080000+0000000000000000000000001N
1212850946      000040000+0000000000000000000000001N
1212850947      000040000+0000000000000000000000001N
1212850948      000100000+0000000000000000000000001N
1212850949      000150000+0000000000000000000000001N
1212850950      000060000+0000000000000000000000001N
1212850951      000030000+0000000000000000000000001N
1212850953      000020000+0000000000000000000000001N
1212850955      000100000+0000000000000000000000001N
00002013050217260
120000337400002136922013050200000000000000000000N0000000PAST. JERSEY DEL NOROESTE,S.A.0000000000N
1212311223      000080000+0000000000000000000000001N
1212850947      000060000+0000000000000000000000001N
1212850950      000060000+0000000000000000000000001N
1212850951      000060000+0000000000000000000000001N
1212850953      000040000+0000000000000000000000001N
00002013050213200
120000337400002144612013050200000000000000000000N0000000PAST. JERSEY DEL NOROESTE,S.A.0000000000N
1212311220      000050000+0000000000000000000000001N
1212311223      000060000+0000000000000000000000001N
1212850946      000080000+0000000000000000000000001N
1212850947      000060000+0000000000000000000000001N
1212850949      000060000+0000000000000000000000001N
00002013050216590
120000337400002165912013050200000000000000000000N0000000PAST. JERSEY DEL NOROESTE,S.A.0000000000N
1212130323      000030000+0000000000000000000000001N
1212311221      000090000+0000000000000000000000001N
1212311222      000090000+0000000000000000000000001N
1212850948      000060000+0000000000000000000000001N
1212850949      000090000+0000000000000000000000001N
1212850950      000060000+0000000000000000000000001N
1212850951      000080000+0000000000000000000000001N
00002013050215850
120000337400002166792013050200000000000000000000N0000000PAST. JERSEY DEL NOROESTE,S.A.0000000000N
1212290691      000130000+0000000000000000000000001N
1212311220      000090000+0000000000000000000000001N
1212311222      000080000+0000000000000000000000001N
1212311223      000060000+0000000000000000000000001N
1212850949      000120000+0000000000000000000000001N
1212850954      000030000+0000000000000000000000001N
00002013050216220
120000337400002166802013050200000000000000000000N0000000PAST. JERSEY DEL NOROESTE,S.A.0000000000N
1212290691      000080000+0000000000000000000000001N
1212311221      000060000+0000000000000000000000001N
1212850946      000020000+0000000000000000000000001N
1212850948      000060000+0000000000000000000000001N
1212850950      000050000+0000000000000000000000001N
00002013050218030
120000337400002166842013050200000000000000000000N0000000PAST. JERSEY DEL NOROESTE,S.A.0000000000N
1212290691      000020000+0000000000000000000000001N
1212311220      000060000+0000000000000000000000001N
1212311221      000120000+0000000000000000000000001N
1212311223      000050000+0000000000000000000000001N
1212850949      000100000+0000000000000000000000001N
1212850950      000030000+0000000000000000000000001N
1212850954      000070000+0000000000000000000000001N
00002013050213050
120000337400002166862013050200000000000000000000N0000000PAST. JERSEY DEL NOROESTE,S.A.0000000000N
1212311223      000080000+0000000000000000000000001N
1212850948      000030000+0000000000000000000000001N
1212850949      000080000+0000000000000000000000001N
00002013050213000
120000337400002172022013050200000000000000000000N0000000PAST. JERSEY DEL NOROESTE,S.A.0000000000N
1212311220      000090000+0000000000000000000000001N
1212311221      000050000+0000000000000000000000001N
1212311222      000060000+0000000000000000000000001N
1212311223      000090000+0000000000000000000000001N
1212850946      000020000+0000000000000000000000001N
1212850949      000180000+0000000000000000000000001N
1212850950      000020000+0000000000000000000000001N
1212850952      000050000+0000000000000000000000001N
00002013050217730
120000337400002179192013050200000000000000000000N0000000PAST. JERSEY DEL NOROESTE,S.A.0000000000N
1212311220      000070000+0000000000000000000000001N
1212850947      000010000+0000000000000000000000001N
1212850949      000030000+0000000000000000000000001N
1212850950      000020000+0000000000000000000000001N
1212850951      000020000+0000000000000000000000001N
00002013050214320
120000337400002190522013050200000000000000000000N0000000PAST. JERSEY DEL NOROESTE,S.A.0000000000N
1212311220      000060000+0000000000000000000000001N
1212311221      000060000+0000000000000000000000001N
1212850949      000070000+0000000000000000000000001N
00002013050215130
120000337400002190542013050200000000000000000000N0000000PAST. JERSEY DEL NOROESTE,S.A.0000000000N
1212311221      000150000+0000000000000000000000001N
1212311222      000120000+0000000000000000000000001N
1212311223      000150000+0000000000000000000000001N
1212850949      000030000+0000000000000000000000001N
1212850952      000090000+0000000000000000000000001N
00002013050218320
120000359600000222042013050200000000000000000000N0000000BEBIDAS PURIFICADAS S D RL CV 0000000000N
1212291847      000010000+0000000000000000000000012N
1212291848      000020000+0000000000000000000000012N
00002013050212790
120000337400002221452013050200000000000000000000N0000000PAST. JERSEY DEL NOROESTE,S.A.0000000000N
1212311220      000060000+0000000000000000000000001N
1212311221      000020000+0000000000000000000000001N
1212311222      000060000+0000000000000000000000001N
1212850946      000060000+0000000000000000000000001N
1212850947      000040000+0000000000000000000000001N
1212850950      000060000+0000000000000000000000001N
1212850951      000040000+0000000000000000000000001N
1212850955      000060000+0000000000000000000000001N
00002013050218620
120000337400002248722013050200000000000000000000N0000000PAST. JERSEY DEL NOROESTE,S.A.0000000000N
1212130323      000030000+0000000000000000000000001N
1212311220      000040000+0000000000000000000000001N
1212311221      000040000+0000000000000000000000001N
1212850946      000080000+0000000000000000000000001N
1212850949      000100000+0000000000000000000000001N
1212850953      000030000+0000000000000000000000001N
00002013050213330
120000337400002252692013050200000000000000000000N0000000PAST. JERSEY DEL NOROESTE,S.A.0000000000N
1212850946      000080000+0000000000000000000000001N
1212850947      000040000+0000000000000000000000001N
1212850948      000120000+0000000000000000000000001N
1212850949      000080000+0000000000000000000000001N
1212850951      000120000+0000000000000000000000001N
1212850955      000080000+0000000000000000000000001N
00002013050213020
120000349400002281012013050200000000000000000000N0000000COM. PEPSICO MEXICO S DE RL CV0000000000N
1212160024      000150000+0000000000000000000000001N
1212160062      000040000+0000000000000000000000001N
1212161009      000150000+0000000000000000000000001N
1212161017      000150000+0000000000000000000000001N
1212161018      000150000+0000000000000000000000001N
1212161021      000150000+0000000000000000000000001N
1212161160      000150000+0000000000000000000000001N
1212161189      000150000+0000000000000000000000001N
1212164339      000040000+0000000000000000000000001N
1212164343      000060000+0000000000000000000000001N
1212164349      000040000+0000000000000000000000001N
1212164360      000150000+0000000000000000000000001N
1212164505      000060000+0000000000000000000000001N
1212164548      000040000+0000000000000000000000001N
1212164559      000180000+0000000000000000000000001N
00002013050213070
120000349400002284492013050200000000000000000000N0000000COM. PEPSICO MEXICO S DE RL CV0000000000N
1212160024      000200000+0000000000000000000000001N
1212161160      000300000+0000000000000000000000001N
1212164312      000100000+0000000000000000000000001N
1212164313      000100000+0000000000000000000000001N
1212164314      000100000+0000000000000000000000001N
1212164330      000080000+0000000000000000000000001N
1212164334      000150000+0000000000000000000000001N
1212164337      000140000+0000000000000000000000001N
1212164338      000200000+0000000000000000000000001N
1212164339      000030000+0000000000000000000000001N
1212164343      000100000+0000000000000000000000001N
1212164349      000040000+0000000000000000000000001N
1212164559      000100000+0000000000000000000000001N
1212164561      000060000+0000000000000000000000001N
1212164564      000020000+0000000000000000000000001N
1212164594      000100000+0000000000000000000000001N
1212164609      000050000+0000000000000000000000001N
1212164610      000060000+0000000000000000000000001N
1212164611      000040000+0000000000000000000000001N
1212164612      000030000+0000000000000000000000001N
1212800203      000050000+0000000000000000000000001N
00002013050216590
120000349400002285092013050200000000000000000000N0000000COM. PEPSICO MEXICO S DE RL CV0000000000N
1212161021      000100000+0000000000000000000000001N
1212161160      000100000+0000000000000000000000001N
1212161485      000100000+0000000000000000000000001N
1212164272      000100000+0000000000000000000000001N
1212164334      000150000+0000000000000000000000001N
1212164337      000040000+0000000000000000000000001N
1212164348      000060000+0000000000000000000000001N
1212164349      000060000+0000000000000000000000001N
1212164387      000140000+0000000000000000000000001N
1212164559      000180000+0000000000000000000000001N
1212164561      000020000+0000000000000000000000001N
1212164562      000040000+0000000000000000000000001N
1212164608      000100000+0000000000000000000000001N
